{
  "contractName": "HelloWorld",
  "abi": [
    {
      "constant": true,
      "inputs": [],
      "name": "test",
      "outputs": [
        {
          "name": "",
          "type": "string"
        }
      ],
      "payable": false,
      "stateMutability": "pure",
      "type": "function"
    },
    {
      "constant": true,
      "inputs": [],
      "name": "test1",
      "outputs": [
        {
          "name": "",
          "type": "string"
        }
      ],
      "payable": false,
      "stateMutability": "view",
      "type": "function"
    },
    {
      "constant": false,
      "inputs": [
        {
          "name": "s",
          "type": "string"
        }
      ],
      "name": "test2",
      "outputs": [
        {
          "name": "",
          "type": "string"
        }
      ],
      "payable": false,
      "stateMutability": "nonpayable",
      "type": "function"
    }
  ],
  "bytecode": "0x608060405234801561001057600080fd5b5061030e806100206000396000f300608060405260043610610057576000357c0100000000000000000000000000000000000000000000000000000000900463ffffffff16806330e738a71461005c5780636b59084d1461013e578063f8a8fd6d146101ce575b600080fd5b34801561006857600080fd5b506100c3600480360381019080803590602001908201803590602001908080601f016020809104026020016040519081016040528093929190818152602001838380828437820191505050505050919291929050505061025e565b6040518080602001828103825283818151815260200191508051906020019080838360005b838110156101035780820151818401526020810190506100e8565b50505050905090810190601f1680156101305780820380516001836020036101000a031916815260200191505b509250505060405180910390f35b34801561014a57600080fd5b50610153610268565b6040518080602001828103825283818151815260200191508051906020019080838360005b83811015610193578082015181840152602081019050610178565b50505050905090810190601f1680156101c05780820380516001836020036101000a031916815260200191505b509250505060405180910390f35b3480156101da57600080fd5b506101e36102a5565b6040518080602001828103825283818151815260200191508051906020019080838360005b83811015610223578082015181840152602081019050610208565b50505050905090810190601f1680156102505780820380516001836020036101000a031916815260200191505b509250505060405180910390f35b6060819050919050565b60606040805190810160405280600781526020017f736d616c6c636300000000000000000000000000000000000000000000000000815250905090565b60606040805190810160405280600a81526020017f68656c6c6f576f726c64000000000000000000000000000000000000000000008152509050905600a165627a7a72305820a7b0ec737ad2b1e89824c741a332b22e2457eb5ecd62d035fe29707ac1dda9930029",
  "source": "pragma solidity ^0.4.4;\r\ncontract HelloWorld {\r\n   function test()  pure public  returns (string) {\r\n     return \"helloWorld\";\r\n   }\r\n   function test1() constant  public  returns (string) {\r\n     return \"smallcc\";\r\n   }\r\n   function test2(string s)   public  returns (string) {\r\n     return s;\r\n   }\r\n}\r\n",
  "sourcePath": "E:\\Mychains\\Sol\\truffleDemo\\contracts\\HelloWorld.sol",
  "compiler": {
    "name": "solc",
    "version": "0.4.24+commit.e67f0147.Emscripten.clang"
  },
  "schemaVersion": "2.0.1",
  "updatedAt": "2018-06-25T07:40:40.243Z"
}