{
  "contractName": "MathContract",
  "abi": [
    {
      "constant": true,
      "inputs": [
        {
          "name": "a",
          "type": "uint256"
        },
        {
          "name": "b",
          "type": "uint256"
        }
      ],
      "name": "mulAToB",
      "outputs": [
        {
          "name": "",
          "type": "uint256"
        }
      ],
      "payable": false,
      "stateMutability": "pure",
      "type": "function"
    }
  ],
  "bytecode": "0x608060405234801561001057600080fd5b5060c58061001f6000396000f300608060405260043610603f576000357c0100000000000000000000000000000000000000000000000000000000900463ffffffff1680637f239251146044575b600080fd5b348015604f57600080fd5b5060766004803603810190808035906020019092919080359060200190929190505050608c565b6040518082815260200191505060405180910390f35b60008183029050929150505600a165627a7a7230582059abb4efd4a0d249381d45e5743f0ca8f3b4c96bd5502b3ffa5b825ce87946bf0029",
  "source": "pragma solidity ^0.4.23;\r\ncontract MathContract {\r\n  function mulAToB(uint a,uint b) pure public returns (uint) {\r\n    return a * b;\r\n  }\r\n}\r\n",
  "sourcePath": "E:\\Mychains\\Sol\\demo\\contracts\\MathContract.sol",
  "compiler": {
    "name": "solc",
    "version": "0.4.24+commit.e67f0147.Emscripten.clang"
  },
  "schemaVersion": "2.0.1",
  "updatedAt": "2018-06-26T06:35:01.753Z"
}